{
  "transactions": [
    {
      "hash": "0x88a9e2cf1a484945685b22ca6468c306c6383cf03137a0f0a703b4cd062ef717",
      "transactionType": "CALL",
      "contractName": null,
      "contractAddress": "0x679b8d145812237f7e01d966770b142a946963e2",
      "function": "removePool(address)",
      "arguments": [
        "0x5FeC619342077cdB90652205535DBFCa6a1126fC"
      ],
      "transaction": {
        "from": "0xac1efb2c2e2243a1305a48730f3296f1533b00b9",
        "to": "0x679b8d145812237f7e01d966770b142a946963e2",
        "gas": "0x10447",
        "value": "0x0",
        "input": "0x3b7d09460000000000000000000000005fec619342077cdb90652205535dbfca6a1126fc",
        "nonce": "0x28bc5",
        "chainId": "0xaa36a7"
      },
      "additionalContracts": [],
      "isFixedGasLimit": false
    },
    {
      "hash": "0x49d4bf9d091947b6b5674673174cbd3f95dfdf49b969a269ce67b2d78c6c9b02",
      "transactionType": "CALL",
      "contractName": null,
      "contractAddress": "0x679b8d145812237f7e01d966770b142a946963e2",
      "function": "removePool(address)",
      "arguments": [
        "0x2FC35F3B5B75ecF265756882Eb21c68FDcaa828d"
      ],
      "transaction": {
        "from": "0xac1efb2c2e2243a1305a48730f3296f1533b00b9",
        "to": "0x679b8d145812237f7e01d966770b142a946963e2",
        "gas": "0x10354",
        "value": "0x0",
        "input": "0x3b7d09460000000000000000000000002fc35f3b5b75ecf265756882eb21c68fdcaa828d",
        "nonce": "0x28bc6",
        "chainId": "0xaa36a7"
      },
      "additionalContracts": [],
      "isFixedGasLimit": false
    },
    {
      "hash": "0xe190fbc86c77cd67e42770406d2c98af9c6932e7e95ec7433cd2a5129e92a7ea",
      "transactionType": "CREATE",
      "contractName": "ORAStakeRouter",
      "contractAddress": "0x13526daab258eac2315be77ae6368bbd6d53052d",
      "function": null,
      "arguments": null,
      "transaction": {
        "from": "0xac1efb2c2e2243a1305a48730f3296f1533b00b9",
        "gas": "0x23ab4e",
        "value": "0x0",
        "input": "0x6080604052620697806000556001805460ff1916905534801561002157600080fd5b5061002a61002f565b6100e1565b7ff0c57e16840df040f15088dc2f81fe391c3923bec73e23a9662efc9c229c6a00805468010000000000000000900460ff161561007f5760405163f92ee8a960e01b815260040160405180910390fd5b80546001600160401b03908116146100de5780546001600160401b0319166001600160401b0390811782556040519081527fc7f505b2f371ae2175ee4913f4499e1f2633a7b5936321eed1cdaeb6115181d29060200160405180910390a15b50565b611ea7806100f06000396000f3fe6080604052600436106101665760003560e01c80638bfa12c0116100d1578063b002e3bc1161008a578063d77188bb11610064578063d77188bb14610439578063df01febc14610466578063f2fde38b1461049b578063f5b44a70146104bb57600080fd5b8063b002e3bc146103e3578063c4d66de8146103f9578063cec7892d1461041957600080fd5b80638bfa12c0146102fb5780638da5cb5b146103295780638ed7333d14610370578063a2ac953014610390578063a5edbe91146103b0578063adc9772e146103d057600080fd5b80635997b42d116101235780635997b42d146102465780635c975abb146102665780636155e3de14610297578063715018a6146102b15780638456cb59146102c65780638b60a3ee146102db57600080fd5b80632531692e1461016b57806333ba88821461018d578063397a1b28146101ad5780633b7d0946146101f15780633f4ba83a14610211578063516c49d914610226575b600080fd5b34801561017757600080fd5b5061018b610186366004611941565b6104db565b005b34801561019957600080fd5b5061018b6101a836600461199f565b610626565b3480156101b957600080fd5b506101cd6101c83660046119cb565b61076d565b604080516001600160a01b0390931683526020830191909152015b60405180910390f35b3480156101fd57600080fd5b5061018b61020c3660046119f5565b6108bb565b34801561021d57600080fd5b5061018b610a59565b34801561023257600080fd5b5061018b6102413660046119f5565b610a6b565b34801561025257600080fd5b5061018b610261366004611a10565b600055565b34801561027257600080fd5b50600080516020611e528339815191525460ff165b60405190151581526020016101e8565b3480156102a357600080fd5b506001546102879060ff1681565b3480156102bd57600080fd5b5061018b610b70565b3480156102d257600080fd5b5061018b610b82565b3480156102e757600080fd5b5061018b6102f6366004611a29565b610b92565b34801561030757600080fd5b5061031b6103163660046119f5565b610bf5565b6040519081526020016101e8565b34801561033557600080fd5b507f9016d09d72d40fdae2fd8ceac6b6234c7706214fd39c1cd1e609a0528c199300546040516001600160a01b0390911681526020016101e8565b34801561037c57600080fd5b5061018b61038b3660046119cb565b610c5f565b34801561039c57600080fd5b5061018b6103ab366004611a4b565b610e90565b3480156103bc57600080fd5b5061018b6103cb366004611a10565b610fae565b61018b6103de3660046119cb565b611125565b3480156103ef57600080fd5b5061031b60005481565b34801561040557600080fd5b5061018b6104143660046119f5565b6112f8565b34801561042557600080fd5b5061018b610434366004611aa5565b61149c565b34801561044557600080fd5b50610459610454366004611ac2565b6114b7565b6040516101e89190611aec565b34801561047257600080fd5b506104866104813660046119f5565b611530565b604080519283526020830191909152016101e8565b3480156104a757600080fd5b5061018b6104b63660046119f5565b6115a6565b3480156104c757600080fd5b5061031b6104d6366004611a10565b6115e4565b60005b8181101561062157368383838181106104f9576104f9611b47565b905060200281019061050b9190611b5d565b9050600061051c60208301836119f5565b6001600160a01b0316638ae7ab02336105386020860186611b7d565b6040518463ffffffff1660e01b815260040161055693929190611bc7565b6020604051808303816000875af1158015610575573d6000803e3d6000fd5b505050506040513d601f19601f820116820180604052508101906105999190611c11565b905080337f5d8326bac5662e24e9b089e71cc504206de004705da8ed5dab8eb3fe107dd6b9600360006105cf60208801886119f5565b6001600160a01b0316815260208082019290925260400160002054906105f7908701876119f5565b604080519283526001600160a01b0390911660208301520160405180910390a350506001016104de565b505050565b61062e611612565b81801580159061063f575060025481105b6106645760405162461bcd60e51b815260040161065b90611c2a565b60405180910390fd5b6000805b6002858154811061067b5761067b611b47565b60009182526020909120600390910201548110156106fd57836001600160a01b0316600286815481106106b0576106b0611b47565b906000526020600020906003020160000182815481106106d2576106d2611b47565b6000918252602090912001546001600160a01b0316036106f557600191506106fd565b600101610668565b5080610751576002848154811061071657610716611b47565b60009182526020808320600392909202909101805460018101825590835291200180546001600160a01b0319166001600160a01b0385161790555b50506001600160a01b0316600090815260036020526040902055565b6001600160a01b0382166000908152600360205260408120548190849082036107a85760405162461bcd60e51b815260040161065b90611c61565b60015460ff16156107f15760405162461bcd60e51b81526020600482015260136024820152723bb4ba34323930bb9034b9903830bab9b2b21760691b604482015260640161065b565b600084116108415760405162461bcd60e51b815260206004820152601860248201527f696e76616c696420776974686472617720616d6f756e742e0000000000000000604482015260640161065b565b60405163072f436560e31b8152336004820152602481018590526001600160a01b0386169063397a1b28906044016020604051808303816000875af115801561088e573d6000803e3d6000fd5b505050506040513d601f19601f820116820180604052508101906108b29190611c11565b94959350505050565b6108c3611612565b6001600160a01b0381166000908152600360205260408120548291036108fb5760405162461bcd60e51b815260040161065b90611c61565b6001600160a01b038216600090815260036020526040812054600280549192918390811061092b5761092b611b47565b60009182526020822060039091020191505b8154811015610a5257846001600160a01b031682828154811061096257610962611b47565b6000918252602090912001546001600160a01b031603610a4a578154829061098c90600190611ca4565b8154811061099c5761099c611b47565b9060005260206000200160009054906101000a90046001600160a01b03168282815481106109cc576109cc611b47565b9060005260206000200160006101000a8154816001600160a01b0302191690836001600160a01b0316021790555081805480610a0a57610a0a611cb7565b60008281526020808220830160001990810180546001600160a01b03191690559092019092556001600160a01b0387168252600390526040812055610a52565b60010161093d565b5050505050565b610a61611612565b610a6961166d565b565b6001600160a01b038116600090815260036020526040812054829103610aa35760405162461bcd60e51b815260040161065b90611c61565b60405163516c49d960e01b81523360048201526000906001600160a01b0384169063516c49d9906024016020604051808303816000875af1158015610aec573d6000803e3d6000fd5b505050506040513d601f19601f82011682018060405250810190610b109190611c11565b6001600160a01b03841660008181526003602090815260409182902054825190815290810192909252919250829133917f5d8326bac5662e24e9b089e71cc504206de004705da8ed5dab8eb3fe107dd6b9910160405180910390a3505050565b610b78611612565b610a6960006116cd565b610b8a611612565b610a6961173e565b610b9a611612565b818015801590610bab575060025481105b610bc75760405162461bcd60e51b815260040161065b90611c2a565b8160028481548110610bdb57610bdb611b47565b906000526020600020906003020160020181905550505050565b6000816001600160a01b031663a95411e06040518163ffffffff1660e01b8152600401602060405180830381865afa158015610c35573d6000803e3d6000fd5b505050506040513d601f19601f82011682018060405250810190610c599190611c11565b92915050565b610c67611612565b808015801590610c78575060025481105b610c945760405162461bcd60e51b815260040161065b90611c2a565b6001600160a01b038316600090815260036020526040902054828103610d0c5760405162461bcd60e51b815260206004820152602760248201527f506f6f6c20697320616c726561647920696e2074686520737065636966696564604482015266103b30bab63a1760c91b606482015260840161065b565b600060028281548110610d2157610d21611b47565b60009182526020822060039091020191505b8154811015610e2f57856001600160a01b0316828281548110610d5857610d58611b47565b6000918252602090912001546001600160a01b031603610e275781548290610d8290600190611ca4565b81548110610d9257610d92611b47565b9060005260206000200160009054906101000a90046001600160a01b0316828281548110610dc257610dc2611b47565b9060005260206000200160006101000a8154816001600160a01b0302191690836001600160a01b0316021790555081805480610e0057610e00611cb7565b600082815260209020810160001990810180546001600160a01b0319169055019055610e2f565b600101610d33565b5060028481548110610e4357610e43611b47565b6000918252602080832060039283020180546001810182559084528184200180546001600160a01b039099166001600160a01b031990991689179055968252909552505060409092205550565b610e98611612565b6040805160806020850280830182019093526060820185815260009383928891889182919086019084908082843760009201829052509385525050506020808301829052604090920185905260028054600181018255915282518051939450849360039092027f405787fa12a823e0f2b7631cc41b3ba8828b3321ca811111fa75cd3aa3bb5ace0192610f309284929091019061187b565b506020820151816001015560408201518160020155505060005b83811015610a5257600254610f6190600190611ca4565b60036000878785818110610f7757610f77611b47565b9050602002016020810190610f8c91906119f5565b6001600160a01b03168152602081019190915260400160002055600101610f4a565b808015801590610fbf575060025481105b610fdb5760405162461bcd60e51b815260040161065b90611c2a565b8115801590610feb575060025482105b6110075760405162461bcd60e51b815260040161065b90611c2a565b6000806002848154811061101d5761101d611b47565b9060005260206000209060030201905060005b6002858154811061104357611043611b47565b600091825260209091206003909102015481101561111c5760006002868154811061107057611070611b47565b9060005260206000209060030201600001828154811061109257611092611b47565b600091825260209182902001546040805163054aa08f60e51b815290516001600160a01b039092169350839263a95411e0926004808401938290030181865afa1580156110e3573d6000803e3d6000fd5b505050506040513d601f19601f820116820180604052508101906111079190611c11565b6111119085611ccd565b935050600101611030565b50600101555050565b6001600160a01b03821660009081526003602052604081205483910361115d5760405162461bcd60e51b815260040161065b90611c61565b600082116111ad5760405162461bcd60e51b815260206004820152601760248201527f696e76616c6964207374616b696e6720616d6f756e742e000000000000000000604482015260640161065b565b6001600160a01b0383166000908152600360205260408120546002805490919081106111db576111db611b47565b9060005260206000209060030201905080600201548382600101546112009190611ccd565b111561121f5760405163440194c760e11b815260040160405180910390fd5b6040516356e4bb9760e11b8152336004820152602481018490526001600160a01b0385169063adc9772e9034906044016000604051808303818588803b15801561126857600080fd5b505af115801561127c573d6000803e3d6000fd5b5050505050828160010160008282546112959190611ccd565b90915550506001600160a01b03841660008181526003602090815260409182902054825190815290810192909252849133917fcc5951ba01c8e62942710d4c90cd15ebc188a8d97c369744fbeba3e0f1a5329d910160405180910390a350505050565b7ff0c57e16840df040f15088dc2f81fe391c3923bec73e23a9662efc9c229c6a008054600160401b810460ff16159067ffffffffffffffff1660008115801561133e5750825b905060008267ffffffffffffffff16600114801561135b5750303b155b905081158015611369575080155b156113875760405163f92ee8a960e01b815260040160405180910390fd5b845467ffffffffffffffff1916600117855583156113b157845460ff60401b1916600160401b1785555b6113ba86611787565b6113c2611798565b6113ca61173e565b6040805160006060820181815260808301845282526020808301829052928201819052600280546001810182559152815180519293849360039093027f405787fa12a823e0f2b7631cc41b3ba8828b3321ca811111fa75cd3aa3bb5ace0192611436928492019061187b565b506020820151816001015560408201518160020155505050831561149457845460ff60401b19168555604051600181527fc7f505b2f371ae2175ee4913f4499e1f2633a7b5936321eed1cdaeb6115181d29060200160405180910390a15b505050505050565b6114a4611612565b6001805460ff1916911515919091179055565b60405163132cc7a760e01b81526001600160a01b0382811660048301526060919084169063132cc7a790602401600060405180830381865afa158015611501573d6000803e3d6000fd5b505050506040513d6000823e601f3d908101601f191682016040526115299190810190611d50565b9392505050565b6040516337c07faf60e21b815233600482015260009081906001600160a01b0384169063df01febc906024016040805180830381865afa158015611578573d6000803e3d6000fd5b505050506040513d601f19601f8201168201806040525081019061159c9190611e2d565b9094909350915050565b6115ae611612565b6001600160a01b0381166115d857604051631e4fbdf760e01b81526000600482015260240161065b565b6115e1816116cd565b50565b6000600282815481106115f9576115f9611b47565b9060005260206000209060030201600201549050919050565b336116447f9016d09d72d40fdae2fd8ceac6b6234c7706214fd39c1cd1e609a0528c199300546001600160a01b031690565b6001600160a01b031614610a695760405163118cdaa760e01b815233600482015260240161065b565b6116756117a8565b600080516020611e52833981519152805460ff191681557f5db9ee0a495bf2e6ff9c91a7834c1ba4fdd244a5e8aa4e537bd38aeae4b073aa335b6040516001600160a01b03909116815260200160405180910390a150565b7f9016d09d72d40fdae2fd8ceac6b6234c7706214fd39c1cd1e609a0528c19930080546001600160a01b031981166001600160a01b03848116918217845560405192169182907f8be0079c531659141344cd1fd0a4f28419497f9722a3daafe3b4186f6b6457e090600090a3505050565b6117466117d8565b600080516020611e52833981519152805460ff191660011781557f62e78cea01bee320cd4e420270b5ea74000d11b0c9f74754ebdbfc544b05a258336116af565b61178f611809565b6115e181611852565b6117a0611809565b610a6961185a565b600080516020611e528339815191525460ff16610a6957604051638dfc202b60e01b815260040160405180910390fd5b600080516020611e528339815191525460ff1615610a695760405163d93c066560e01b815260040160405180910390fd5b7ff0c57e16840df040f15088dc2f81fe391c3923bec73e23a9662efc9c229c6a0054600160401b900460ff16610a6957604051631afcd79f60e31b815260040160405180910390fd5b6115ae611809565b611862611809565b600080516020611e52833981519152805460ff19169055565b8280548282559060005260206000209081019282156118d0579160200282015b828111156118d057825182546001600160a01b0319166001600160a01b0390911617825560209092019160019091019061189b565b506118dc9291506118e0565b5090565b5b808211156118dc57600081556001016118e1565b60008083601f84011261190757600080fd5b50813567ffffffffffffffff81111561191f57600080fd5b6020830191508360208260051b850101111561193a57600080fd5b9250929050565b6000806020838503121561195457600080fd5b823567ffffffffffffffff81111561196b57600080fd5b611977858286016118f5565b90969095509350505050565b80356001600160a01b038116811461199a57600080fd5b919050565b600080604083850312156119b257600080fd5b823591506119c260208401611983565b90509250929050565b600080604083850312156119de57600080fd5b6119e783611983565b946020939093013593505050565b600060208284031215611a0757600080fd5b61152982611983565b600060208284031215611a2257600080fd5b5035919050565b60008060408385031215611a3c57600080fd5b50508035926020909101359150565b600080600060408486031215611a6057600080fd5b833567ffffffffffffffff811115611a7757600080fd5b611a83868287016118f5565b909790965060209590950135949350505050565b80151581146115e157600080fd5b600060208284031215611ab757600080fd5b813561152981611a97565b60008060408385031215611ad557600080fd5b611ade83611983565b91506119c260208401611983565b602080825282518282018190526000919060409081850190868401855b82811015611b3a57815180518552868101518786015285015115158585015260609093019290850190600101611b09565b5091979650505050505050565b634e487b7160e01b600052603260045260246000fd5b60008235603e19833603018112611b7357600080fd5b9190910192915050565b6000808335601e19843603018112611b9457600080fd5b83018035915067ffffffffffffffff821115611baf57600080fd5b6020019150600581901b360382131561193a57600080fd5b6001600160a01b0384168152604060208201819052810182905260006001600160fb1b03831115611bf757600080fd5b8260051b8085606085013791909101606001949350505050565b600060208284031215611c2357600080fd5b5051919050565b60208082526018908201527f5661756c7420494420646f6573206e6f742065786973742e0000000000000000604082015260600190565b602080825260139082015272141bdbdb08191bd95cc81b9bdd08195e1a5cdd606a1b604082015260600190565b634e487b7160e01b600052601160045260246000fd5b81810381811115610c5957610c59611c8e565b634e487b7160e01b600052603160045260246000fd5b80820180821115610c5957610c59611c8e565b634e487b7160e01b600052604160045260246000fd5b6040516060810167ffffffffffffffff81118282101715611d1957611d19611ce0565b60405290565b604051601f8201601f1916810167ffffffffffffffff81118282101715611d4857611d48611ce0565b604052919050565b60006020808385031215611d6357600080fd5b825167ffffffffffffffff80821115611d7b57600080fd5b818501915085601f830112611d8f57600080fd5b815181811115611da157611da1611ce0565b611daf848260051b01611d1f565b81815284810192506060918202840185019188831115611dce57600080fd5b938501935b82851015611e215780858a031215611deb5760008081fd5b611df3611cf6565b855181528686015187820152604080870151611e0e81611a97565b9082015284529384019392850192611dd3565b50979650505050505050565b60008060408385031215611e4057600080fd5b50508051602090910151909290915056fecd5ed15c6e187e77e9aee88184c21f4f2182ab5827cb3b7e07fbedcd63f03300a2646970667358221220d14ff4d2d8a0c8dbf0aea8615d34cacf8e3de3503557537fc4c3f662394d6c4b64736f6c63430008180033",
        "nonce": "0x28bc7",
        "chainId": "0xaa36a7"
      },
      "additionalContracts": [],
      "isFixedGasLimit": false
    },
    {
      "hash": "0x8c0d05d8db79863cb55a8b8a6f7c63c4e7c9fd915fdd67a4cfe17b28332dcd4e",
      "transactionType": "CALL",
      "contractName": null,
      "contractAddress": "0x076cf237f609de0066abc0974673ab376992e4d2",
      "function": "upgrade(address,address)",
      "arguments": [
        "0x679B8D145812237F7e01d966770b142a946963E2",
        "0x13526dAAB258EAc2315be77AE6368Bbd6d53052D"
      ],
      "transaction": {
        "from": "0xac1efb2c2e2243a1305a48730f3296f1533b00b9",
        "to": "0x076cf237f609de0066abc0974673ab376992e4d2",
        "gas": "0xdf45",
        "value": "0x0",
        "input": "0x99a88ec4000000000000000000000000679b8d145812237f7e01d966770b142a946963e200000000000000000000000013526daab258eac2315be77ae6368bbd6d53052d",
        "nonce": "0x28bc8",
        "chainId": "0xaa36a7"
      },
      "additionalContracts": [],
      "isFixedGasLimit": false
    },
    {
      "hash": "0x91ebddc9ff3ab98fd39bda81c9e28119dc6f95d6e27f51307942396859fb7b4d",
      "transactionType": "CALL",
      "contractName": null,
      "contractAddress": "0x679b8d145812237f7e01d966770b142a946963e2",
      "function": "addPool(uint256,address)",
      "arguments": [
        "1",
        "0xB77Fc2ee5FC04465C2719A0055542ed8cE8611E0"
      ],
      "transaction": {
        "from": "0xac1efb2c2e2243a1305a48730f3296f1533b00b9",
        "to": "0x679b8d145812237f7e01d966770b142a946963e2",
        "gas": "0xf898",
        "value": "0x0",
        "input": "0x33ba88820000000000000000000000000000000000000000000000000000000000000001000000000000000000000000b77fc2ee5fc04465c2719a0055542ed8ce8611e0",
        "nonce": "0x28bc9",
        "chainId": "0xaa36a7"
      },
      "additionalContracts": [],
      "isFixedGasLimit": false
    },
    {
      "hash": "0x4d819a2cd64014cee5b95d2140fbf3d628c754e8a6c0f024990fac5097c348cb",
      "transactionType": "CALL",
      "contractName": null,
      "contractAddress": "0x679b8d145812237f7e01d966770b142a946963e2",
      "function": "addPool(uint256,address)",
      "arguments": [
        "1",
        "0x2Ed364335E0ef6308D86b96F28c9151bB7ccE11F"
      ],
      "transaction": {
        "from": "0xac1efb2c2e2243a1305a48730f3296f1533b00b9",
        "to": "0x679b8d145812237f7e01d966770b142a946963e2",
        "gas": "0x146a6",
        "value": "0x0",
        "input": "0x33ba888200000000000000000000000000000000000000000000000000000000000000010000000000000000000000002ed364335e0ef6308d86b96f28c9151bb7cce11f",
        "nonce": "0x28bca",
        "chainId": "0xaa36a7"
      },
      "additionalContracts": [],
      "isFixedGasLimit": false
    },
    {
      "hash": "0xce02c67bec8fdb77d02f76a2ac75b51e09d01b15ffa8ce3594192afc16b140ed",
      "transactionType": "CALL",
      "contractName": null,
      "contractAddress": "0x679b8d145812237f7e01d966770b142a946963e2",
      "function": "addPool(uint256,address)",
      "arguments": [
        "1",
        "0x5a9167D96c5Ad4fd97F86263cA583C3bC7ef2F34"
      ],
      "transaction": {
        "from": "0xac1efb2c2e2243a1305a48730f3296f1533b00b9",
        "to": "0x679b8d145812237f7e01d966770b142a946963e2",
        "gas": "0x1e12c",
        "value": "0x0",
        "input": "0x33ba888200000000000000000000000000000000000000000000000000000000000000010000000000000000000000005a9167d96c5ad4fd97f86263ca583c3bc7ef2f34",
        "nonce": "0x28bcb",
        "chainId": "0xaa36a7"
      },
      "additionalContracts": [],
      "isFixedGasLimit": false
    },
    {
      "hash": "0xf4b30a9d23e466bc35804123a68bf29e100e27861026ceefb985fcc9b95d53ef",
      "transactionType": "CALL",
      "contractName": null,
      "contractAddress": "0x679b8d145812237f7e01d966770b142a946963e2",
      "function": "addPool(uint256,address)",
      "arguments": [
        "2",
        "0xA18187Ca69F075AAA59F17742803b988E9996d04"
      ],
      "transaction": {
        "from": "0xac1efb2c2e2243a1305a48730f3296f1533b00b9",
        "to": "0x679b8d145812237f7e01d966770b142a946963e2",
        "gas": "0xe82e",
        "value": "0x0",
        "input": "0x33ba88820000000000000000000000000000000000000000000000000000000000000002000000000000000000000000a18187ca69f075aaa59f17742803b988e9996d04",
        "nonce": "0x28bcc",
        "chainId": "0xaa36a7"
      },
      "additionalContracts": [],
      "isFixedGasLimit": false
    }
  ],
  "receipts": [
    {
      "status": "0x1",
      "cumulativeGasUsed": "0x9ca597",
      "logs": [],
      "logsBloom": "0x00000000000000000000000000000000000000000000000000000000000000000000000000000000000000000000000000000000000000000000000000000000000000000000000000000000000000000000000000000000000000000000000000000000000000000000000000000000000000000000000000000000000000000000000000000000000000000000000000000000000000000000000000000000000000000000000000000000000000000000000000000000000000000000000000000000000000000000000000000000000000000000000000000000000000000000000000000000000000000000000000000000000000000000000000000000",
      "type": "0x2",
      "transactionHash": "0x88a9e2cf1a484945685b22ca6468c306c6383cf03137a0f0a703b4cd062ef717",
      "transactionIndex": "0x58",
      "blockHash": "0xd895858aab7d4af05af960ee21d7c392b11ee4e1df4dc2da8f102c85343893ab",
      "blockNumber": "0x5c8203",
      "gasUsed": "0xbc70",
      "effectiveGasPrice": "0x2394e4",
      "from": "0xac1efb2c2e2243a1305a48730f3296f1533b00b9",
      "to": "0x679b8d145812237f7e01d966770b142a946963e2",
      "contractAddress": null
    },
    {
      "status": "0x1",
      "cumulativeGasUsed": "0x9d6157",
      "logs": [],
      "logsBloom": "0x00000000000000000000000000000000000000000000000000000000000000000000000000000000000000000000000000000000000000000000000000000000000000000000000000000000000000000000000000000000000000000000000000000000000000000000000000000000000000000000000000000000000000000000000000000000000000000000000000000000000000000000000000000000000000000000000000000000000000000000000000000000000000000000000000000000000000000000000000000000000000000000000000000000000000000000000000000000000000000000000000000000000000000000000000000000",
      "type": "0x2",
      "transactionHash": "0x49d4bf9d091947b6b5674673174cbd3f95dfdf49b969a269ce67b2d78c6c9b02",
      "transactionIndex": "0x59",
      "blockHash": "0xd895858aab7d4af05af960ee21d7c392b11ee4e1df4dc2da8f102c85343893ab",
      "blockNumber": "0x5c8203",
      "gasUsed": "0xbbc0",
      "effectiveGasPrice": "0x2394e4",
      "from": "0xac1efb2c2e2243a1305a48730f3296f1533b00b9",
      "to": "0x679b8d145812237f7e01d966770b142a946963e2",
      "contractAddress": null
    },
    {
      "status": "0x1",
      "cumulativeGasUsed": "0xb8d366",
      "logs": [
        {
          "address": "0x13526daab258eac2315be77ae6368bbd6d53052d",
          "topics": [
            "0xc7f505b2f371ae2175ee4913f4499e1f2633a7b5936321eed1cdaeb6115181d2"
          ],
          "data": "0x000000000000000000000000000000000000000000000000ffffffffffffffff",
          "blockHash": "0xd895858aab7d4af05af960ee21d7c392b11ee4e1df4dc2da8f102c85343893ab",
          "blockNumber": "0x5c8203",
          "transactionHash": "0xe190fbc86c77cd67e42770406d2c98af9c6932e7e95ec7433cd2a5129e92a7ea",
          "transactionIndex": "0x5a",
          "logIndex": "0xa1",
          "removed": false
        }
      ],
      "logsBloom": "0x00000000000000000000000000000000000000000000000000000000000000000000000000000000000000000000000000000000000000000000000000000000000000000000000000000004000000000000000000000000000000000000000000000000000000000000000020000000000000000000000000000000000000000000000000000000000800000000000000000000000080000000000000000000000000000000000000000000000000000000000000000000000000000000000000000000000000000000000000000000000000000004000000000000000000000000000000000000000000000000000000000000000004000000000000000000",
      "type": "0x2",
      "transactionHash": "0xe190fbc86c77cd67e42770406d2c98af9c6932e7e95ec7433cd2a5129e92a7ea",
      "transactionIndex": "0x5a",
      "blockHash": "0xd895858aab7d4af05af960ee21d7c392b11ee4e1df4dc2da8f102c85343893ab",
      "blockNumber": "0x5c8203",
      "gasUsed": "0x1b720f",
      "effectiveGasPrice": "0x2394e4",
      "from": "0xac1efb2c2e2243a1305a48730f3296f1533b00b9",
      "to": null,
      "contractAddress": "0x13526daab258eac2315be77ae6368bbd6d53052d"
    },
    {
      "status": "0x1",
      "cumulativeGasUsed": "0xb96c10",
      "logs": [
        {
          "address": "0x679b8d145812237f7e01d966770b142a946963e2",
          "topics": [
            "0xbc7cd75a20ee27fd9adebab32041f755214dbc6bffa90cc0225b39da2e5c2d3b",
            "0x00000000000000000000000013526daab258eac2315be77ae6368bbd6d53052d"
          ],
          "data": "0x",
          "blockHash": "0xd895858aab7d4af05af960ee21d7c392b11ee4e1df4dc2da8f102c85343893ab",
          "blockNumber": "0x5c8203",
          "transactionHash": "0x8c0d05d8db79863cb55a8b8a6f7c63c4e7c9fd915fdd67a4cfe17b28332dcd4e",
          "transactionIndex": "0x5b",
          "logIndex": "0xa2",
          "removed": false
        }
      ],
      "logsBloom": "0x00000000000000000000000000000000400000000000000000000000000000000000000000000000000200000000000000000800020000020000000000000000004000000000000000000000000002000000000000000000000000000000000000000000000000000000000000000000000000000000000000000000000000000000000000000000000000000000000000000000000000000000000000000000000000000000000000000000000000000000000000000000000000000000000000000020000000000000000000000000000000000000000000000000000000000000000000000000000000000000000000000000000010000000000000000000",
      "type": "0x2",
      "transactionHash": "0x8c0d05d8db79863cb55a8b8a6f7c63c4e7c9fd915fdd67a4cfe17b28332dcd4e",
      "transactionIndex": "0x5b",
      "blockHash": "0xd895858aab7d4af05af960ee21d7c392b11ee4e1df4dc2da8f102c85343893ab",
      "blockNumber": "0x5c8203",
      "gasUsed": "0x98aa",
      "effectiveGasPrice": "0x2394e4",
      "from": "0xac1efb2c2e2243a1305a48730f3296f1533b00b9",
      "to": "0x076cf237f609de0066abc0974673ab376992e4d2",
      "contractAddress": null
    },
    {
      "status": "0x1",
      "cumulativeGasUsed": "0xba160b",
      "logs": [],
      "logsBloom": "0x00000000000000000000000000000000000000000000000000000000000000000000000000000000000000000000000000000000000000000000000000000000000000000000000000000000000000000000000000000000000000000000000000000000000000000000000000000000000000000000000000000000000000000000000000000000000000000000000000000000000000000000000000000000000000000000000000000000000000000000000000000000000000000000000000000000000000000000000000000000000000000000000000000000000000000000000000000000000000000000000000000000000000000000000000000000",
      "type": "0x2",
      "transactionHash": "0x91ebddc9ff3ab98fd39bda81c9e28119dc6f95d6e27f51307942396859fb7b4d",
      "transactionIndex": "0x5c",
      "blockHash": "0xd895858aab7d4af05af960ee21d7c392b11ee4e1df4dc2da8f102c85343893ab",
      "blockNumber": "0x5c8203",
      "gasUsed": "0xa9fb",
      "effectiveGasPrice": "0x2394e4",
      "from": "0xac1efb2c2e2243a1305a48730f3296f1533b00b9",
      "to": "0x679b8d145812237f7e01d966770b142a946963e2",
      "contractAddress": null
    },
    {
      "status": "0x1",
      "cumulativeGasUsed": "0xbb0289",
      "logs": [],
      "logsBloom": "0x00000000000000000000000000000000000000000000000000000000000000000000000000000000000000000000000000000000000000000000000000000000000000000000000000000000000000000000000000000000000000000000000000000000000000000000000000000000000000000000000000000000000000000000000000000000000000000000000000000000000000000000000000000000000000000000000000000000000000000000000000000000000000000000000000000000000000000000000000000000000000000000000000000000000000000000000000000000000000000000000000000000000000000000000000000000",
      "type": "0x2",
      "transactionHash": "0x4d819a2cd64014cee5b95d2140fbf3d628c754e8a6c0f024990fac5097c348cb",
      "transactionIndex": "0x5d",
      "blockHash": "0xd895858aab7d4af05af960ee21d7c392b11ee4e1df4dc2da8f102c85343893ab",
      "blockNumber": "0x5c8203",
      "gasUsed": "0xec7e",
      "effectiveGasPrice": "0x2394e4",
      "from": "0xac1efb2c2e2243a1305a48730f3296f1533b00b9",
      "to": "0x679b8d145812237f7e01d966770b142a946963e2",
      "contractAddress": null
    },
    {
      "status": "0x1",
      "cumulativeGasUsed": "0xbc5ee6",
      "logs": [],
      "logsBloom": "0x00000000000000000000000000000000000000000000000000000000000000000000000000000000000000000000000000000000000000000000000000000000000000000000000000000000000000000000000000000000000000000000000000000000000000000000000000000000000000000000000000000000000000000000000000000000000000000000000000000000000000000000000000000000000000000000000000000000000000000000000000000000000000000000000000000000000000000000000000000000000000000000000000000000000000000000000000000000000000000000000000000000000000000000000000000000",
      "type": "0x2",
      "transactionHash": "0xce02c67bec8fdb77d02f76a2ac75b51e09d01b15ffa8ce3594192afc16b140ed",
      "transactionIndex": "0x5e",
      "blockHash": "0xd895858aab7d4af05af960ee21d7c392b11ee4e1df4dc2da8f102c85343893ab",
      "blockNumber": "0x5c8203",
      "gasUsed": "0x15c5d",
      "effectiveGasPrice": "0x2394e4",
      "from": "0xac1efb2c2e2243a1305a48730f3296f1533b00b9",
      "to": "0x679b8d145812237f7e01d966770b142a946963e2",
      "contractAddress": null
    },
    {
      "status": "0x1",
      "cumulativeGasUsed": "0xbcfda8",
      "logs": [],
      "logsBloom": "0x00000000000000000000000000000000000000000000000000000000000000000000000000000000000000000000000000000000000000000000000000000000000000000000000000000000000000000000000000000000000000000000000000000000000000000000000000000000000000000000000000000000000000000000000000000000000000000000000000000000000000000000000000000000000000000000000000000000000000000000000000000000000000000000000000000000000000000000000000000000000000000000000000000000000000000000000000000000000000000000000000000000000000000000000000000000",
      "type": "0x2",
      "transactionHash": "0xf4b30a9d23e466bc35804123a68bf29e100e27861026ceefb985fcc9b95d53ef",
      "transactionIndex": "0x5f",
      "blockHash": "0xd895858aab7d4af05af960ee21d7c392b11ee4e1df4dc2da8f102c85343893ab",
      "blockNumber": "0x5c8203",
      "gasUsed": "0x9ec2",
      "effectiveGasPrice": "0x2394e4",
      "from": "0xac1efb2c2e2243a1305a48730f3296f1533b00b9",
      "to": "0x679b8d145812237f7e01d966770b142a946963e2",
      "contractAddress": null
    }
  ],
  "libraries": [],
  "pending": [],
  "returns": {},
  "timestamp": 1717820933,
  "chain": 11155111,
  "commit": "dbb3d77"
}